{
  "address": "0x2400bf0a2b50882505480a41Be3c21e878cb9c45",
  "abi": [
    {
      "inputs": [
        {
          "internalType": "address",
          "name": "token_",
          "type": "address"
        },
        {
          "internalType": "bytes32",
          "name": "merkleRoot_",
          "type": "bytes32"
        },
        {
          "internalType": "uint256",
          "name": "_totalClaims",
          "type": "uint256"
        },
        {
          "internalType": "uint256",
          "name": "_initialPoolSize",
          "type": "uint256"
        },
        {
          "internalType": "uint256",
          "name": "_bonusStart",
          "type": "uint256"
        },
        {
          "internalType": "uint256",
          "name": "_bonusEnd",
          "type": "uint256"
        },
        {
          "internalType": "uint256",
          "name": "_emergencyTimeout",
          "type": "uint256"
        },
        {
          "internalType": "address",
          "name": "_emergencyReceiver",
          "type": "address"
        }
      ],
      "stateMutability": "nonpayable",
      "type": "constructor"
    },
    {
      "anonymous": false,
      "inputs": [
        {
          "indexed": false,
          "internalType": "uint256",
          "name": "index",
          "type": "uint256"
        },
        {
          "indexed": false,
          "internalType": "address",
          "name": "account",
          "type": "address"
        },
        {
          "indexed": false,
          "internalType": "uint256",
          "name": "amount",
          "type": "uint256"
        }
      ],
      "name": "Claimed",
      "type": "event"
    },
    {
      "inputs": [],
      "name": "MAX_BONUS",
      "outputs": [
        {
          "internalType": "uint256",
          "name": "",
          "type": "uint256"
        }
      ],
      "stateMutability": "view",
      "type": "function"
    },
    {
      "inputs": [],
      "name": "PERCENTAGE_BASE",
      "outputs": [
        {
          "internalType": "uint256",
          "name": "",
          "type": "uint256"
        }
      ],
      "stateMutability": "view",
      "type": "function"
    },
    {
      "inputs": [],
      "name": "bonusEnd",
      "outputs": [
        {
          "internalType": "uint256",
          "name": "",
          "type": "uint256"
        }
      ],
      "stateMutability": "view",
      "type": "function"
    },
    {
      "inputs": [],
      "name": "bonusStart",
      "outputs": [
        {
          "internalType": "uint256",
          "name": "",
          "type": "uint256"
        }
      ],
      "stateMutability": "view",
      "type": "function"
    },
    {
      "inputs": [],
      "name": "bonusSum",
      "outputs": [
        {
          "internalType": "uint256",
          "name": "",
          "type": "uint256"
        }
      ],
      "stateMutability": "view",
      "type": "function"
    },
    {
      "inputs": [
        {
          "internalType": "uint256",
          "name": "amount",
          "type": "uint256"
        }
      ],
      "name": "calculateAdjustedAmount",
      "outputs": [
        {
          "internalType": "uint256",
          "name": "adjustedAmount",
          "type": "uint256"
        },
        {
          "internalType": "uint256",
          "name": "bonus",
          "type": "uint256"
        },
        {
          "internalType": "uint256",
          "name": "bonusPart",
          "type": "uint256"
        }
      ],
      "stateMutability": "view",
      "type": "function"
    },
    {
      "inputs": [
        {
          "internalType": "uint256",
          "name": "index",
          "type": "uint256"
        },
        {
          "internalType": "address",
          "name": "account",
          "type": "address"
        },
        {
          "internalType": "uint256",
          "name": "amount",
          "type": "uint256"
        },
        {
          "internalType": "bytes32[]",
          "name": "merkleProof",
          "type": "bytes32[]"
        }
      ],
      "name": "claim",
      "outputs": [],
      "stateMutability": "nonpayable",
      "type": "function"
    },
    {
      "inputs": [],
      "name": "claimed",
      "outputs": [
        {
          "internalType": "uint256",
          "name": "",
          "type": "uint256"
        }
      ],
      "stateMutability": "view",
      "type": "function"
    },
    {
      "inputs": [],
      "name": "currentPoolSize",
      "outputs": [
        {
          "internalType": "uint256",
          "name": "",
          "type": "uint256"
        }
      ],
      "stateMutability": "view",
      "type": "function"
    },
    {
      "inputs": [],
      "name": "emergencyReceiver",
      "outputs": [
        {
          "internalType": "address",
          "name": "",
          "type": "address"
        }
      ],
      "stateMutability": "view",
      "type": "function"
    },
    {
      "inputs": [],
      "name": "emergencyTimeout",
      "outputs": [
        {
          "internalType": "uint256",
          "name": "",
          "type": "uint256"
        }
      ],
      "stateMutability": "view",
      "type": "function"
    },
    {
      "inputs": [],
      "name": "emergencyWithdrawal",
      "outputs": [],
      "stateMutability": "nonpayable",
      "type": "function"
    },
    {
      "inputs": [],
      "name": "getBonus",
      "outputs": [
        {
          "internalType": "uint256",
          "name": "",
          "type": "uint256"
        }
      ],
      "stateMutability": "view",
      "type": "function"
    },
    {
      "inputs": [],
      "name": "initialPoolSize",
      "outputs": [
        {
          "internalType": "uint256",
          "name": "",
          "type": "uint256"
        }
      ],
      "stateMutability": "view",
      "type": "function"
    },
    {
      "inputs": [
        {
          "internalType": "uint256",
          "name": "index",
          "type": "uint256"
        }
      ],
      "name": "isClaimed",
      "outputs": [
        {
          "internalType": "bool",
          "name": "",
          "type": "bool"
        }
      ],
      "stateMutability": "view",
      "type": "function"
    },
    {
      "inputs": [],
      "name": "merkleRoot",
      "outputs": [
        {
          "internalType": "bytes32",
          "name": "",
          "type": "bytes32"
        }
      ],
      "stateMutability": "view",
      "type": "function"
    },
    {
      "inputs": [],
      "name": "percentageIndex",
      "outputs": [
        {
          "internalType": "uint256",
          "name": "",
          "type": "uint256"
        }
      ],
      "stateMutability": "view",
      "type": "function"
    },
    {
      "inputs": [],
      "name": "token",
      "outputs": [
        {
          "internalType": "address",
          "name": "",
          "type": "address"
        }
      ],
      "stateMutability": "view",
      "type": "function"
    },
    {
      "inputs": [],
      "name": "totalClaims",
      "outputs": [
        {
          "internalType": "uint256",
          "name": "",
          "type": "uint256"
        }
      ],
      "stateMutability": "view",
      "type": "function"
    }
  ],
  "transactionHash": "0x78d8b9939251df7a0ca77eae317ca111b9fb93dbc10701b3af74375bb66e6c89",
  "args": [
    "0x618679df9efcd19694bb1daa8d00718eacfa2883",
    "0x1516cfabc18be73aebacaa952a6a84080f67e10b0b3241e6bfc60e8a3b8073f8",
    1794,
    "79999178000000000000000000",
    1626674400,
    1687154400,
    1728885600,
    "0x75237802D46A40C4be57f518A7902528Be688Dfc"
  ],
  "solcInputHash": "3ea3d4557295e153a98f13179c6ec135",
  "bytecode": "0x60c060405234801561001057600080fd5b50604051610e52380380610e52833981810160405261010081101561003457600080fd5b5080516020820151604083015160608085015160808087015160a08089015160c08a015160e0909a01519589901b6001600160601b031916909352869052600185905560028390556003839055670de0b6b3a7640000600655600781905560088290556009889055600a80546001600160a01b0319166001600160a01b03861617905595969495939491939290919082841061010a576040805162461bcd60e51b815260206004820152601060248201526f57524f4e475f424f4e55535f54494d4560801b604482015290519081900360640190fd5b60085460095411610162576040805162461bcd60e51b815260206004820152601760248201527f57524f4e475f454d455247454e43595f54494d454f5554000000000000000000604482015290519081900360640190fd5b505050505050505060805160601c60a051610cb361019f600039806103ef528061059c52508061046d528061071352806108cf5250610cb36000f3fe608060405234801561001057600080fd5b50600436106101215760003560e01c806387c13943116100ad578063cdf76d5a11610071578063cdf76d5a1461028a578063cf9fccb2146102ae578063d6de5cf6146102b6578063e834a834146102be578063fc0c546a146102c657610121565b806387c13943146102395780638bc85b03146102415780638bdff16114610249578063910ada6b146102515780639e34070f1461025957610121565b806341c61383116100f457806341c6138314610211578063545e9233146102195780635b0a3843146102215780636261c662146102295780636cecaa2c1461023157610121565b806324f0808c146101265780632e7ba6ef146101405780632eb4a7ab146101ce5780634021f45f146101d6575b600080fd5b61012e6102ce565b60408051918252519081900360200190f35b6101cc6004803603608081101561015657600080fd5b8135916001600160a01b03602082013516916040820135919081019060808101606082013564010000000081111561018d57600080fd5b82018360208201111561019f57600080fd5b803590602001918460208302840111640100000000831117156101c157600080fd5b5090925090506102da565b005b61012e61059a565b6101f3600480360360208110156101ec57600080fd5b50356105be565b60408051938452602084019290925282820152519081900360600190f35b61012e610698565b61012e61069e565b6101cc6106a4565b61012e61080e565b61012e610814565b61012e61081a565b61012e610826565b61012e61082c565b61012e610881565b6102766004803603602081101561026f57600080fd5b5035610887565b604080519115158252519081900360200190f35b6102926108ac565b604080516001600160a01b039092168252519081900360200190f35b61012e6108bb565b61012e6108c1565b61012e6108c7565b6102926108cd565b670ddd2935029d800081565b6102e385610887565b1561031f5760405162461bcd60e51b8152600401808060200182810382526028815260200180610bf16028913960400191505060405180910390fd5b336001600160a01b03851614610373576040805162461bcd60e51b81526020600482015260146024820152734f6e6c79206f776e65722063616e20636c61696d60601b604482015290519081900360640190fd5b600085858560405160200180848152602001836001600160a01b031660601b8152601401828152602001935050505060405160208183030381529060405280519060200120905061041a8383808060200260200160405190810160405280939291908181526020018383602002808284376000920191909152507f000000000000000000000000000000000000000000000000000000000000000092508591506108f19050565b6104555760405162461bcd60e51b8152600401808060200182810382526021815260200180610c196021913960400191505060405180910390fd5b61045e8661099a565b6000610469856109c1565b90507f00000000000000000000000000000000000000000000000000000000000000006001600160a01b031663a9059cbb87836040518363ffffffff1660e01b815260040180836001600160a01b0316815260200182815260200192505050602060405180830381600087803b1580156104e257600080fd5b505af11580156104f6573d6000803e3d6000fd5b505050506040513d602081101561050c57600080fd5b50516105495760405162461bcd60e51b8152600401808060200182810382526023815260200180610c3a6023913960400191505060405180910390fd5b604080518881526001600160a01b038816602082015280820183905290517f4ec90e965519d92681267467f775ada5bd214aa92c0dc93d90a5e880ce9ed0269181900360600190a150505050505050565b7f000000000000000000000000000000000000000000000000000000000000000081565b600080600060015460055460010114156105ee576004546105e0908590610a70565b600080925092509250610691565b600061062f670de0b6b3a7640000610623600654610629600254610623670de0b6b3a76400008c610ad390919063ffffffff16565b90610b2c565b90610ad3565b9050610652670de0b6b3a764000061062360045484610ad390919063ffffffff16565b915060006106608684610a70565b9050610680670de0b6b3a764000061062361067961082c565b8490610ad3565b935061068c8185610b93565b945050505b9193909250565b60015481565b60065481565b60095442116106f0576040805162461bcd60e51b81526020600482015260136024820152721512535153d55517d393d517d1561412549151606a1b604482015290519081900360640190fd5b600a54604080516370a0823160e01b815230600482015290516001600160a01b037f000000000000000000000000000000000000000000000000000000000000000081169363a9059cbb9391169184916370a08231916024808301926020929190829003018186803b15801561076557600080fd5b505afa158015610779573d6000803e3d6000fd5b505050506040513d602081101561078f57600080fd5b5051604080516001600160e01b031960e086901b1681526001600160a01b03909316600484015260248301919091525160448083019260209291908290030181600087803b1580156107e057600080fd5b505af11580156107f4573d6000803e3d6000fd5b505050506040513d602081101561080a57600080fd5b5050565b60075481565b60045481565b670de0b6b3a764000081565b60085481565b600080600854421161084a576008546108459042610b93565b61084d565b60005b905061087b610869600754600854610b9390919063ffffffff16565b610623670ddd2935029d800084610ad3565b91505090565b60025481565b6101008104600090815260208190526040902054600160ff83161b908116145b919050565b600a546001600160a01b031681565b60095481565b60035481565b60055481565b7f000000000000000000000000000000000000000000000000000000000000000081565b600081815b855181101561098f57600086828151811061090d57fe5b602002602001015190508083116109545782816040516020018083815260200182815260200192505050604051602081830303815290604052805190602001209250610986565b808360405160200180838152602001828152602001925050506040516020818303038152906040528051906020012092505b506001016108f6565b509092149392505050565b610100810460009081526020819052604090208054600160ff9093169290921b9091179055565b6000806000806109d0856105be565b6005805460019081019182905554939650919450925014156109f7578293505050506108a7565b600354600090610a079087610b93565b9050610a42670de0b6b3a7640000610623610a3984610623670de0b6b3a7640000600354610ad390919063ffffffff16565b60065490610ad3565b6006556003819055600454610a63908490610a5d9085610b93565b90610a70565b6004555091949350505050565b600082820183811015610aca576040805162461bcd60e51b815260206004820152601b60248201527f536166654d6174683a206164646974696f6e206f766572666c6f770000000000604482015290519081900360640190fd5b90505b92915050565b600082610ae257506000610acd565b82820282848281610aef57fe5b0414610aca5760405162461bcd60e51b8152600401808060200182810382526021815260200180610c5d6021913960400191505060405180910390fd5b6000808211610b82576040805162461bcd60e51b815260206004820152601a60248201527f536166654d6174683a206469766973696f6e206279207a65726f000000000000604482015290519081900360640190fd5b818381610b8b57fe5b049392505050565b600082821115610bea576040805162461bcd60e51b815260206004820152601e60248201527f536166654d6174683a207375627472616374696f6e206f766572666c6f770000604482015290519081900360640190fd5b5090039056fe4d65726b6c654469737472696275746f723a2044726f7020616c726561647920636c61696d65642e4d65726b6c654469737472696275746f723a20496e76616c69642070726f6f662e4d65726b6c654469737472696275746f723a205472616e73666572206661696c65642e536166654d6174683a206d756c7469706c69636174696f6e206f766572666c6f77a2646970667358221220500928c1fdad0a8570fdad5dd2d453b234f7928825c5efe661a1fcdf4d6cb06d64736f6c63430007030033",
  "devdoc": {
    "kind": "dev",
    "methods": {},
    "version": 1
  },
  "userdoc": {
    "kind": "user",
    "methods": {},
    "version": 1
  },
  "storageLayout": {
    "storage": [
      {
        "astId": 1050,
        "contract": "contracts/MerkleDistributor.sol:MerkleDistributor",
        "label": "claimedBitMap",
        "offset": 0,
        "slot": "0",
        "type": "t_mapping(t_uint256,t_uint256)"
      },
      {
        "astId": 1058,
        "contract": "contracts/MerkleDistributor.sol:MerkleDistributor",
        "label": "totalClaims",
        "offset": 0,
        "slot": "1",
        "type": "t_uint256"
      },
      {
        "astId": 1060,
        "contract": "contracts/MerkleDistributor.sol:MerkleDistributor",
        "label": "initialPoolSize",
        "offset": 0,
        "slot": "2",
        "type": "t_uint256"
      },
      {
        "astId": 1062,
        "contract": "contracts/MerkleDistributor.sol:MerkleDistributor",
        "label": "currentPoolSize",
        "offset": 0,
        "slot": "3",
        "type": "t_uint256"
      },
      {
        "astId": 1064,
        "contract": "contracts/MerkleDistributor.sol:MerkleDistributor",
        "label": "bonusSum",
        "offset": 0,
        "slot": "4",
        "type": "t_uint256"
      },
      {
        "astId": 1066,
        "contract": "contracts/MerkleDistributor.sol:MerkleDistributor",
        "label": "claimed",
        "offset": 0,
        "slot": "5",
        "type": "t_uint256"
      },
      {
        "astId": 1068,
        "contract": "contracts/MerkleDistributor.sol:MerkleDistributor",
        "label": "percentageIndex",
        "offset": 0,
        "slot": "6",
        "type": "t_uint256"
      },
      {
        "astId": 1070,
        "contract": "contracts/MerkleDistributor.sol:MerkleDistributor",
        "label": "bonusStart",
        "offset": 0,
        "slot": "7",
        "type": "t_uint256"
      },
      {
        "astId": 1072,
        "contract": "contracts/MerkleDistributor.sol:MerkleDistributor",
        "label": "bonusEnd",
        "offset": 0,
        "slot": "8",
        "type": "t_uint256"
      },
      {
        "astId": 1074,
        "contract": "contracts/MerkleDistributor.sol:MerkleDistributor",
        "label": "emergencyTimeout",
        "offset": 0,
        "slot": "9",
        "type": "t_uint256"
      },
      {
        "astId": 1076,
        "contract": "contracts/MerkleDistributor.sol:MerkleDistributor",
        "label": "emergencyReceiver",
        "offset": 0,
        "slot": "10",
        "type": "t_address"
      }
    ],
    "types": {
      "t_address": {
        "encoding": "inplace",
        "label": "address",
        "numberOfBytes": "20"
      },
      "t_mapping(t_uint256,t_uint256)": {
        "encoding": "mapping",
        "key": "t_uint256",
        "label": "mapping(uint256 => uint256)",
        "numberOfBytes": "32",
        "value": "t_uint256"
      },
      "t_uint256": {
        "encoding": "inplace",
        "label": "uint256",
        "numberOfBytes": "32"
      }
    }
  }
}